{
  "address": "0x495f7d19d88B68eb99777FB6B6e2f4eeEeF6a349",
  "abi": [
    {
      "inputs": [],
      "stateMutability": "nonpayable",
      "type": "constructor"
    },
    {
      "inputs": [
        {
          "internalType": "address[]",
          "name": "recipients",
          "type": "address[]"
        },
        {
          "internalType": "uint256[]",
          "name": "values",
          "type": "uint256[]"
        }
      ],
      "name": "disperseEther",
      "outputs": [],
      "stateMutability": "payable",
      "type": "function"
    },
    {
      "inputs": [
        {
          "internalType": "contract IERC20",
          "name": "token",
          "type": "address"
        },
        {
          "internalType": "address[]",
          "name": "recipients",
          "type": "address[]"
        },
        {
          "internalType": "uint256[]",
          "name": "values",
          "type": "uint256[]"
        }
      ],
      "name": "disperseToken",
      "outputs": [],
      "stateMutability": "nonpayable",
      "type": "function"
    },
    {
      "inputs": [
        {
          "internalType": "contract IERC20",
          "name": "token",
          "type": "address"
        },
        {
          "internalType": "address[]",
          "name": "recipients",
          "type": "address[]"
        },
        {
          "internalType": "uint256[]",
          "name": "values",
          "type": "uint256[]"
        }
      ],
      "name": "disperseTokenSimple",
      "outputs": [],
      "stateMutability": "nonpayable",
      "type": "function"
    },
    {
      "inputs": [],
      "name": "withdraw",
      "outputs": [],
      "stateMutability": "payable",
      "type": "function"
    }
  ],
  "transactionHash": "0x24045c6e3f77c92a8cb6c1bb45425725eb21ba359944d2327c25e354f75b5b16",
  "args": [],
  "numDeployments": 1,
  "solcInputHash": "b363808033df173c0e25b813b42ed499",
  "bytecode": "0x608060405234801561001057600080fd5b50336000806101000a81548173ffffffffffffffffffffffffffffffffffffffff021916908373ffffffffffffffffffffffffffffffffffffffff160217905550610ab8806100606000396000f3fe60806040526004361061003f5760003560e01c80633ccfd60b1461004457806351ba162c1461004e578063c73a2d6014610077578063e63d38ed146100a0575b600080fd5b61004c6100bc565b005b34801561005a57600080fd5b50610075600480360381019061007091906107c2565b610135565b005b34801561008357600080fd5b5061009e600480360381019061009991906107c2565b610217565b005b6100ba60048036038101906100b5919061084d565b6103ca565b005b600047905060008111156101325760008054906101000a900473ffffffffffffffffffffffffffffffffffffffff1673ffffffffffffffffffffffffffffffffffffffff166108fc829081150290604051600060405180830381858888f19350505050158015610130573d6000803e3d6000fd5b505b50565b60005b8251811015610211578373ffffffffffffffffffffffffffffffffffffffff166323b872dd33858481518110610171576101706108c5565b5b602002602001015185858151811061018c5761018b6108c5565b5b60200260200101516040518463ffffffff1660e01b81526004016101b293929190610912565b6020604051808303816000875af11580156101d1573d6000803e3d6000fd5b505050506040513d601f19601f820116820180604052508101906101f59190610981565b6101fe57600080fd5b8080610209906109dd565b915050610138565b50505050565b6000805b835181101561025f57828181518110610237576102366108c5565b5b60200260200101518261024a9190610a25565b91508080610257906109dd565b91505061021b565b508373ffffffffffffffffffffffffffffffffffffffff166323b872dd3330846040518463ffffffff1660e01b815260040161029d93929190610912565b6020604051808303816000875af11580156102bc573d6000803e3d6000fd5b505050506040513d601f19601f820116820180604052508101906102e09190610981565b6102e957600080fd5b60005b83518110156103c3578473ffffffffffffffffffffffffffffffffffffffff1663a9059cbb858381518110610324576103236108c5565b5b602002602001015185848151811061033f5761033e6108c5565b5b60200260200101516040518363ffffffff1660e01b8152600401610364929190610a59565b6020604051808303816000875af1158015610383573d6000803e3d6000fd5b505050506040513d601f19601f820116820180604052508101906103a79190610981565b6103b057600080fd5b80806103bb906109dd565b9150506102ec565b5050505050565b60005b8251811015610464578281815181106103e9576103e86108c5565b5b602002602001015173ffffffffffffffffffffffffffffffffffffffff166108fc83838151811061041d5761041c6108c5565b5b60200260200101519081150290604051600060405180830381858888f19350505050158015610450573d6000803e3d6000fd5b50808061045c906109dd565b9150506103cd565b50600047905060008111156104bb573373ffffffffffffffffffffffffffffffffffffffff166108fc829081150290604051600060405180830381858888f193505050501580156104b9573d6000803e3d6000fd5b505b505050565b6000604051905090565b600080fd5b600080fd5b600073ffffffffffffffffffffffffffffffffffffffff82169050919050565b60006104ff826104d4565b9050919050565b6000610511826104f4565b9050919050565b61052181610506565b811461052c57600080fd5b50565b60008135905061053e81610518565b92915050565b600080fd5b6000601f19601f8301169050919050565b7f4e487b7100000000000000000000000000000000000000000000000000000000600052604160045260246000fd5b61059282610549565b810181811067ffffffffffffffff821117156105b1576105b061055a565b5b80604052505050565b60006105c46104c0565b90506105d08282610589565b919050565b600067ffffffffffffffff8211156105f0576105ef61055a565b5b602082029050602081019050919050565b600080fd5b61060f816104f4565b811461061a57600080fd5b50565b60008135905061062c81610606565b92915050565b6000610645610640846105d5565b6105ba565b9050808382526020820190506020840283018581111561066857610667610601565b5b835b81811015610691578061067d888261061d565b84526020840193505060208101905061066a565b5050509392505050565b600082601f8301126106b0576106af610544565b5b81356106c0848260208601610632565b91505092915050565b600067ffffffffffffffff8211156106e4576106e361055a565b5b602082029050602081019050919050565b6000819050919050565b610708816106f5565b811461071357600080fd5b50565b600081359050610725816106ff565b92915050565b600061073e610739846106c9565b6105ba565b9050808382526020820190506020840283018581111561076157610760610601565b5b835b8181101561078a57806107768882610716565b845260208401935050602081019050610763565b5050509392505050565b600082601f8301126107a9576107a8610544565b5b81356107b984826020860161072b565b91505092915050565b6000806000606084860312156107db576107da6104ca565b5b60006107e98682870161052f565b935050602084013567ffffffffffffffff81111561080a576108096104cf565b5b6108168682870161069b565b925050604084013567ffffffffffffffff811115610837576108366104cf565b5b61084386828701610794565b9150509250925092565b60008060408385031215610864576108636104ca565b5b600083013567ffffffffffffffff811115610882576108816104cf565b5b61088e8582860161069b565b925050602083013567ffffffffffffffff8111156108af576108ae6104cf565b5b6108bb85828601610794565b9150509250929050565b7f4e487b7100000000000000000000000000000000000000000000000000000000600052603260045260246000fd5b6108fd816104f4565b82525050565b61090c816106f5565b82525050565b600060608201905061092760008301866108f4565b61093460208301856108f4565b6109416040830184610903565b949350505050565b60008115159050919050565b61095e81610949565b811461096957600080fd5b50565b60008151905061097b81610955565b92915050565b600060208284031215610997576109966104ca565b5b60006109a58482850161096c565b91505092915050565b7f4e487b7100000000000000000000000000000000000000000000000000000000600052601160045260246000fd5b60006109e8826106f5565b91507fffffffffffffffffffffffffffffffffffffffffffffffffffffffffffffffff8203610a1a57610a196109ae565b5b600182019050919050565b6000610a30826106f5565b9150610a3b836106f5565b9250828201905080821115610a5357610a526109ae565b5b92915050565b6000604082019050610a6e60008301856108f4565b610a7b6020830184610903565b939250505056fea26469706673582212203e7e617ba5c8b6f7227e0bf90c05eb0d0b60adc4c9fbe6f65eaf46044c5c332b64736f6c63430008110033",
  "devdoc": {
    "kind": "dev",
    "methods": {},
    "version": 1
  },
  "userdoc": {
    "kind": "user",
    "methods": {},
    "version": 1
  },
  "storageLayout": {
    "storage": [
      {
        "astId": 24,
        "contract": "contracts/Disperse.sol:Disperse",
        "label": "owner",
        "offset": 0,
        "slot": "0",
        "type": "t_address"
      }
    ],
    "types": {
      "t_address": {
        "encoding": "inplace",
        "label": "address",
        "numberOfBytes": "20"
      }
    }
  }
}